:020000040800F2
:1000000000000120450000084100000841000008F0
:100010004100000841000008410000080000000005
:100020000000000000000000000000004100000887
:1000300041000008000000004100000841000008E5
:10004000FEE7000010B50E4B0E4A0F490F487B44E7
:100050009A5859581858824209D30D490D4A9A584E
:100060005B5800219A4207D300F086F8FEE751F86A
:10007000044B42F8044BEEE742F8041BF2E700BFE2
:10008000AEFFFF1708000000000000001000000095
:100090000C00000004000000144BB0F5164FDA69A4
:1000A00042F40032DA619A6942F004029A61A3F5DF
:1000B00084331A6822F47F421A601A6842F40B42B1
:1000C0001A60DA6842F00802DA600CBF43F698233F
:1000D000074B084A1ABF03EB5003B3FBF0F09360E1
:1000E00042F20C0318BF9060D360704700100240CA
:1000F0000051250200440040024B1A681206FCD54C
:10010000586070470044004042F228335943064B80
:1001100009B9084670471A6801399206F8D55B6834
:1001200003700120704700BF00440040094A136873
:10013000506803F16043B3F5803F09D800F178437C
:10014000A3F58043B3F5E03F02D200F00100704711
:10015000002070470040000808B5054B19685A6830
:1001600072B60448836081F3088862B69047FEE760
:100170000040000800ED00E008B51E4B1A6842F48C
:1001800080321A601A689103FCD502211A4A116064
:100190001A4A5A601A6842F080721A601A6892010C
:1001A000FCD55A6822F003025A605A6842F00202F3
:1001B0005A605A6802F00C02082AFAD10021104B4A
:1001C0005A6859600F4B9A4204D0FFF7AFFF08B14D
:1001D000FFF7C2FF4FF41640FFF75EFF00F080F814
:1001E00018B1FFF7A3FF0028F2D1074B074ADA60E6
:1001F000FEE700BF001002400020024000041D0086
:1002000000400020AAAA555500ED00E00400FA05C0
:10021000024AD368DB07FCD4704700BF00200240CD
:10022000044B1A69120641BF034A5A6002F1883230
:100230005A6070470020024023016745024A136953
:1002400043F08003136170470020024010B5FFF7B0
:10025000E7FF0E480E490F4CFFF7DAFF0B6943F03A
:1002600002030B6148610B6900F5006043F0400335
:100270000B61FFF7CDFF0B69A04223F002030B6176
:10028000EAD1FFF7DBFF012010BD00BF00400008EE
:10029000002002400000020838B51446FFF7C0FFF6
:1002A000013424F001040D4D0C44401AA14203D145
:1002B000FFF7C4FF012038BDFFF7AAFF2B6943F009
:1002C00001032B61431831F8022B1A80FFF7A0FFBE
:1002D0002B6923F001032B61E8E700BF00200240F7
:1002E0002DE9F04F4FF0000B4FF01E085E46ADF2C7
:1002F0002C4DFFF7ABFF6E4B01934320FFF7FCFE45
:100300000DF11B034FF47A7118460293FFF7FCFEC0
:100310000546002844D0029B1B78012B33D0022BCA
:1003200043D0042B2BD11520FFF7E6FE4FF4FA71D2
:100330000DF11D00FFF7E8FE0620FFF7DDFE0DF1D1
:100340001E044320FFF7D8FE4FF47A712046FFF7D2
:10035000DBFE78B19DF81E30012B0BD184240DF10A
:100360001F0632213046FFF7CFFE013CF9D10620AF
:10037000FFF7C2FE28460DF22C4DBDE8F08F182B7A
:100380000ED10025F6E74FF080090DF11C0A4FF45D
:10039000FA715046FFF7B8FE50B91520FFF7ACFED2
:1003A000B8F10108A9D14546E4E74FF48069ECE7CC
:1003B0000DF11D044FF4FA712046FFF7A5FE002849
:1003C000EBD09AF800309DF81D205340FF2BE4D16C
:1003D00000231C4608AF0397C821384605930497AD
:1003E000FFF792FEDDE90423002833D11520FFF743
:1003F00083FE0DF11E07C8213846FFF785FE002851
:10040000CBD00DF11F03C82118460493FFF77CFEE3
:100410000028C2D0049B39781B7843EA01239C4210
:10042000BBD19AF8003073BBBBF1000F2BD1039006
:100430000620FFF761FE4320FFF75EFE039A0126C8
:1004400093464FF4FA610298FFF75EFE00287FF4AE
:1004500062AFA5E71278013784EA0224082214F477
:10046000004F4FEA440418BF84F4815402F1FF3274
:1004700018BF84F0010412F0FF02A4B2EFD10133DF
:100480009945A9D1B5E7B3420DD1019B03EB09040E
:10049000084B9C4205D84A4603990198FFF7FCFE99
:1004A00001940136F6B20620FFF726FEC9E700BF29
:0804B00000400008FFFF0108F5
:1004B800B8040008200000200000002020000020D0
:0404C8000000002010
:0C04CC0000000000000000000000000024
:0400000508000045AA
:00000001FF
