:020000040800F2
:1000000000000120450000084100000841000008F0
:100010004100000841000008410000080000000005
:100020000000000000000000000000004100000887
:1000300041000008000000004100000841000008E5
:10004000FEE70000204B10B51968224A41F001017B
:10005000196058681D497A440140596019681E4862
:1000600021F0847121F480311960196821F4802114
:100070001960596821F4FE015960196821F0A051F6
:1000800019604FF47F0199600021D9624FF000613F
:100090000F4B9960114B1249D35851581058834255
:1000A00009D31049104BD35852580021934207D31B
:1000B00000F084F8FEE751F8044B43F8044BEEE7F8
:1000C00043F8041BF2E700BF001002400000FFF0FD
:1000D00000ED00E0A6FFFF17100000000800000080
:1000E000000000000C00000004000000144BB0F5FC
:1000F000164FDA6942F40032DA619A6942F004027A
:100100009A61A3F584331A6822F47F421A601A6850
:1001100042F40B421A60DA6842F00802DA600CBF5F
:1001200043F69823074B084A1ABF03EB5003B3FB6F
:10013000F0F0936042F20C0318BF9060D3607047F8
:10014000001002400051250200440040024B1A6892
:100150001206FCD5586070470044004042F2283334
:100160005943064B09B9084670471A680139920687
:10017000F8D55B6803700120704700BF0044004061
:10018000044B05481B68184000F160435842584131
:10019000704700BF003000080000FE2F08B5054B77
:1001A00019685A6872B60448836081F3088862B699
:1001B0009047FEE70030000800ED00E008B51E4B58
:1001C0001A6842F480321A601A689103FCD5122131
:1001D0001A4A11601A4A5A601A6842F080721A600C
:1001E0001A689201FCD55A6822F003025A605A68D4
:1001F00042F002025A605A6802F00C02082AFAD150
:100200000021104B5A6859600F4B9A4204D0FFF7F7
:10021000B7FF08B1FFF7C2FF4FF41640FFF766FFC4
:1002200000F07EF818B1FFF7ABFF0028F2D1074BC2
:10023000074ADA60FEE700BF0010024000200240DB
:1002400000041D0000400020AAAA555500ED00E062
:100250000400FA05024AD368DB07FCD4704700BFEC
:1002600000200240034B044A5A6002F188325A606F
:10027000704700BF0020024023016745024A13690E
:1002800043F08003136170470020024010B5FFF770
:10029000E9FF0E480E490F4CFFF7DCFF0B6943F0F6
:1002A00002030B6148610B6900F5006043F04003F5
:1002B0000B61FFF7CFFF0B69A04223F002030B6134
:1002C000EAD1FFF7DBFF012010BD00BF00300008BE
:1002D000002002400000020838B51446FFF7C2FFB4
:1002E000013424F001040D4D0C44401AA14203D105
:1002F000FFF7C4FF012038BDFFF7ACFF2B6943F0C7
:1003000001032B61431831F8022B1A80FFF7A2FF7B
:100310002B6923F001032B61E8E700BF00200240B6
:100320002DE9F04F4FF0000B4FF01E085E46ADF286
:100330002C4DFFF7ABFF6E4B01934320FFF706FFF9
:100340000DF11B034FF47A7118460293FFF706FF75
:100350000546002844D0029B1B78012B33D0022B8A
:1003600043D0042B2BD11520FFF7F0FE4FF4FA7188
:100370000DF11D00FFF7F2FE0620FFF7E7FE0DF17D
:100380001E044320FFF7E2FE4FF47A712046FFF788
:10039000E5FE78B19DF81E30012B0BD184240DF1C0
:1003A0001F0632213046FFF7D9FE013CF9D1062065
:1003B000FFF7CCFE28460DF22C4DBDE8F08F182B30
:1003C0000ED10025F6E74FF080090DF11C0A4FF41D
:1003D000FA715046FFF7C2FE50B91520FFF7B6FE7E
:1003E000B8F10108A9D14546E4E74FF48069ECE78C
:1003F0000DF11D044FF4FA712046FFF7AFFE0028FF
:10040000EBD09AF800309DF81D205340FF2BE4D12B
:1004100000231C4608AF0397C8213846059304976C
:10042000FFF79CFEDDE90423002833D11520FFF7F8
:100430008DFE0DF11E07C8213846FFF78FFE0028FC
:10044000CBD00DF11F03C82118460493FFF786FE99
:100450000028C2D0049B39781B7843EA01239C42D0
:10046000BBD19AF8003073BBBBF1000F2BD10390C6
:100470000620FFF76BFE4320FFF768FE039A012674
:1004800093464FF4FA610298FFF768FE00287FF464
:1004900062AFA5E71278013784EA0224082214F437
:1004A000004F4FEA440418BF84F4815402F1FF3234
:1004B00018BF84F0010412F0FF02A4B2EFD101339F
:1004C0009945A9D1B5E7B3420DD1019B03EB0904CE
:1004D000084B9C4205D84A4603990198FFF7FCFE59
:1004E00001940136F6B20620FFF730FEC9E700BFDF
:0804F00000300008FFFF0108C5
:1004F800F804000820000020000000202000002050
:0405080000000020CF
:0C050C00000000000000000000000000E3
:0400000508000045AA
:00000001FF
