:020000040800F2
:1000000000200020450000084100000841000008D1
:100010004100000841000008410000080000000005
:100020000000000000000000000000004100000887
:1000300041000008000000004100000841000008E5
:10004000FEE7000008B51C4B1A6842F001021A6076
:1000500059681A4A0A405A601A68194922F084728B
:1000600022F480321A601A6822F480221A605A68D8
:1000700022F4FE025A601A6822F0A0521A604FF46D
:100080007F029A600022DA624FF000620D4B9A60A4
:100090000D4B0E4A8B4207D300210D4B0D4A934264
:1000A00007D300F089F8FEE752F8040B43F8040B7D
:1000B000F0E743F8041BF2E7001002400000FFF0F5
:1000C0000000002000ED00E00000002058050008BE
:1000D0000000002000000020144BB0F5164FDA6934
:1000E00042F40032DA619A6942F004029A61A3F59F
:1000F00084331A6822F47F421A601A6842F40B4271
:100100001A60DA6842F00802DA600CBF43F69823FE
:10011000074B084A1ABF03EB5003B3FBF0F09360A0
:1001200042F20C0318BF9060D36070470010024089
:100130000051250200440040024B1A681206FCD50B
:10014000586070470044004042F228335943064B40
:1001500009B9084670471A6801399206F8D55B68F4
:1001600003700120704700BF00440040044B054865
:100170001B68184000F1604358425841704700BF67
:10018000003000080000FE2F074B10B519685A68B0
:1001900072B60648064C04600648836081F30888FE
:1001A00062B69047FEE700BF003000080040002024
:1001B0000310142000ED00E04AF6AA2208B53A4BDD
:1001C0001A6003F5F0335A6802F00C02082A0ED1C7
:1001D0001A6842F001021A601A689207FCD55A6840
:1001E00022F003025A605A6812F00C0FFBD11A6811
:1001F00022F0A0621A601A6812F0206FFBD11A6810
:1002000042F480321A601A689003FCD51221274A02
:1002100011605A6842F480625A60D96A244A0A40DE
:1002200042F4833242F04402DA621A6842F0806299
:100230001A601A681101FCD55A6822F47C1242F443
:10024000E8125A601A6842F080721A601A689201C5
:10025000FCD55A6822F0030242F002025A605A6842
:1002600002F00C02082AFAD14AF6AA2200210E4B0B
:100270001A60104B5A6859600F4B9A4204D0FFF72E
:1002800075FF08B1FFF780FF4FF41640FFF724FF1A
:1002900000F07EF818B1FFF769FF0028F2D1074B94
:1002A000074ADA60FEE700BF00300040002002404D
:1002B00000F0FEFF00400020AAAA555500ED00E026
:1002C0000400FA05024AD368DB07FCD4704700BF7C
:1002D00000200240034B044A5A6002F188325A60FF
:1002E000704700BF0020024023016745024A13699E
:1002F00043F08003136170470020024010B5FFF700
:10030000E9FF0E480E490F4CFFF7DCFF0B6943F085
:1003100002030B6148610B6900F5006043F0400384
:100320000B61FFF7CFFF0B69A04223F002030B61C3
:10033000EAD1FFF7DBFF012010BD00BF003000084D
:10034000002002400000020838B51446FFF7C2FF43
:10035000013424F001040D4D0C44401AA14203D194
:10036000FFF7C4FF012038BDFFF7ACFF2B6943F056
:1003700001032B61431831F8022B1A80FFF7A2FF0B
:100380002B6923F001032B61E8E700BF0020024046
:100390002DE9F04F4FF0000B4FF01E085E46DFF8DE
:1003A000B0A1ADF21C4D4320FFF7C6FE4FF47A71A9
:1003B0000DF10B00FFF7C8FE0546002840D09DF860
:1003C0000B30012B31D0022B3FD0042B29D115202B
:1003D000FFF7B2FE4FF4FA710DF10D00FFF7B4FE16
:1003E0000620FFF7A9FE4320FFF7A6FE4FF47A711F
:1003F0000DF10E00FFF7A8FE70B19DF80E30012B35
:100400000AD1842432210DF10F00FFF79DFE013C3B
:10041000F8D10620FFF790FE28460DF21C4DBDE8EE
:10042000F08F182B0CD10025F6E74FF080094FF420
:10043000FA7103A8FFF788FE50B91520FFF77CFE7C
:10044000B8F10108AFD14546E6E74FF48069EEE721
:100450004FF4FA710DF10D00FFF776FE0028ECD095
:100460009DF80C309DF80D205340FF2BE5D1002363
:100470001C4604AFC821384601930097FFF764FE7D
:10048000DDE90023B8BB1520FFF756FEC8210DF1AA
:100490000E00FFF759FE0028CFD0C8210DF10F0044
:1004A000FFF752FE07460028C7D09DF80E209DF8A2
:1004B0000F3043EA0223A342BFD19DF80C309BBB0F
:1004C000BBF1000F30D19DF81030002BA1D0FFF709
:1004D00015FF0620FFF730FE4320FFF72DFEBB4639
:1004E00001264FF4FA610DF10B00FFF72DFE0028F5
:1004F0007FF465AFA4E71278013784EA022408226A
:1005000014F4004F4FEA440418BF84F4815402F1FC
:10051000FF3218BF84F0010412F0FF02A4B2EFD141
:1005200001339945A6D1B1E7B3420CD1094B0AEB8F
:1005300009049C4205D850464A4604A9FFF704FF27
:10054000A2460136F6B20620FFF7F6FDC9E700BF66
:0805500000300008FFFF010864
:0400000508000045AA
:00000001FF
